{
  "contractName": "EventBid",
  "abi": [
    {
      "constant": true,
      "inputs": [
        {
          "name": "",
          "type": "uint256"
        }
      ],
      "name": "tickets",
      "outputs": [
        {
          "name": "topBidder",
          "type": "address"
        },
        {
          "name": "topBid",
          "type": "uint256"
        },
        {
          "name": "eventName",
          "type": "string"
        },
        {
          "name": "eventEnded",
          "type": "bool"
        },
        {
          "name": "time",
          "type": "uint256"
        },
        {
          "name": "eventId",
          "type": "uint256"
        }
      ],
      "payable": false,
      "stateMutability": "view",
      "type": "function"
    },
    {
      "constant": true,
      "inputs": [],
      "name": "eventCount",
      "outputs": [
        {
          "name": "",
          "type": "uint256"
        }
      ],
      "payable": false,
      "stateMutability": "view",
      "type": "function"
    },
    {
      "constant": true,
      "inputs": [],
      "name": "ownerAddress",
      "outputs": [
        {
          "name": "",
          "type": "address"
        }
      ],
      "payable": false,
      "stateMutability": "view",
      "type": "function"
    },
    {
      "inputs": [],
      "payable": false,
      "stateMutability": "nonpayable",
      "type": "constructor"
    },
    {
      "anonymous": false,
      "inputs": [
        {
          "indexed": false,
          "name": "eventId",
          "type": "uint256"
        },
        {
          "indexed": false,
          "name": "bidder",
          "type": "address"
        },
        {
          "indexed": false,
          "name": "bidAmount",
          "type": "uint256"
        }
      ],
      "name": "topBidIncreased",
      "type": "event"
    },
    {
      "anonymous": false,
      "inputs": [
        {
          "indexed": false,
          "name": "eventId",
          "type": "uint256"
        },
        {
          "indexed": false,
          "name": "winner",
          "type": "address"
        },
        {
          "indexed": false,
          "name": "bidAmount",
          "type": "uint256"
        }
      ],
      "name": "eventResult",
      "type": "event"
    },
    {
      "anonymous": false,
      "inputs": [
        {
          "indexed": false,
          "name": "eventId",
          "type": "uint256"
        }
      ],
      "name": "newEventAdded",
      "type": "event"
    },
    {
      "constant": true,
      "inputs": [],
      "name": "getCount",
      "outputs": [
        {
          "name": "",
          "type": "uint256"
        }
      ],
      "payable": false,
      "stateMutability": "view",
      "type": "function"
    },
    {
      "constant": true,
      "inputs": [
        {
          "name": "eventId",
          "type": "uint256"
        }
      ],
      "name": "fetchTicket",
      "outputs": [
        {
          "name": "",
          "type": "uint256"
        },
        {
          "name": "",
          "type": "string"
        },
        {
          "name": "",
          "type": "uint256"
        },
        {
          "name": "",
          "type": "address"
        },
        {
          "name": "",
          "type": "uint256"
        }
      ],
      "payable": false,
      "stateMutability": "view",
      "type": "function"
    },
    {
      "constant": false,
      "inputs": [
        {
          "name": "name",
          "type": "string"
        },
        {
          "name": "time",
          "type": "uint256"
        }
      ],
      "name": "generateEvent",
      "outputs": [],
      "payable": false,
      "stateMutability": "nonpayable",
      "type": "function"
    },
    {
      "constant": false,
      "inputs": [
        {
          "name": "eventId",
          "type": "uint256"
        }
      ],
      "name": "bid",
      "outputs": [],
      "payable": true,
      "stateMutability": "payable",
      "type": "function"
    },
    {
      "constant": false,
      "inputs": [
        {
          "name": "eventId",
          "type": "uint256"
        }
      ],
      "name": "withdraw",
      "outputs": [
        {
          "name": "",
          "type": "bool"
        }
      ],
      "payable": false,
      "stateMutability": "nonpayable",
      "type": "function"
    },
    {
      "constant": false,
      "inputs": [
        {
          "name": "eventId",
          "type": "uint256"
        }
      ],
      "name": "biddingClose",
      "outputs": [],
      "payable": false,
      "stateMutability": "nonpayable",
      "type": "function"
    }
  ],
  "bytecode": "0x608060405234801561001057600080fd5b50336000806101000a81548173ffffffffffffffffffffffffffffffffffffffff021916908373ffffffffffffffffffffffffffffffffffffffff160217905550610f16806100606000396000f3fe608060405260043610610099576000357c0100000000000000000000000000000000000000000000000000000000900463ffffffff1680632e1a7d4d1461009e578063454a2ab3146100f157806350b447121461011f5780635105d5261461022657806371be2e4a146103225780638f84aa091461034d578063a87d942c146103a4578063b404a24b146103cf578063cbb5cd0b1461040a575b600080fd5b3480156100aa57600080fd5b506100d7600480360360208110156100c157600080fd5b81019080803590602001909291905050506104dc565b604051808215151515815260200191505060405180910390f35b61011d6004803603602081101561010757600080fd5b8101908080359060200190929190505050610640565b005b34801561012b57600080fd5b506101586004803603602081101561014257600080fd5b8101908080359060200190929190505050610852565b604051808773ffffffffffffffffffffffffffffffffffffffff1673ffffffffffffffffffffffffffffffffffffffff1681526020018681526020018060200185151515158152602001848152602001838152602001828103825286818151815260200191508051906020019080838360005b838110156101e65780820151818401526020810190506101cb565b50505050905090810190601f1680156102135780820380516001836020036101000a031916815260200191505b5097505050505050505060405180910390f35b34801561023257600080fd5b5061025f6004803603602081101561024957600080fd5b8101908080359060200190929190505050610953565b60405180868152602001806020018581526020018473ffffffffffffffffffffffffffffffffffffffff1673ffffffffffffffffffffffffffffffffffffffff168152602001838152602001828103825286818151815260200191508051906020019080838360005b838110156102e35780820151818401526020810190506102c8565b50505050905090810190601f1680156103105780820380516001836020036101000a031916815260200191505b50965050505050505060405180910390f35b34801561032e57600080fd5b50610337610a9d565b6040518082815260200191505060405180910390f35b34801561035957600080fd5b50610362610aa3565b604051808273ffffffffffffffffffffffffffffffffffffffff1673ffffffffffffffffffffffffffffffffffffffff16815260200191505060405180910390f35b3480156103b057600080fd5b506103b9610ac8565b6040518082815260200191505060405180910390f35b3480156103db57600080fd5b50610408600480360360208110156103f257600080fd5b8101908080359060200190929190505050610b6c565b005b34801561041657600080fd5b506104da6004803603604081101561042d57600080fd5b810190808035906020019064010000000081111561044a57600080fd5b82018360208201111561045c57600080fd5b8035906020019184600183028401116401000000008311171561047e57600080fd5b91908080601f016020809104026020016040519081016040528093929190818152602001838380828437600081840152601f19601f82011690508083019250505050505050919291929080359060200190929190505050610d30565b005b6000806002600084815260200190815260200160002060000160003373ffffffffffffffffffffffffffffffffffffffff1673ffffffffffffffffffffffffffffffffffffffff16815260200190815260200160002054905060008111156106355760006002600085815260200190815260200160002060000160003373ffffffffffffffffffffffffffffffffffffffff1673ffffffffffffffffffffffffffffffffffffffff168152602001908152602001600020819055503373ffffffffffffffffffffffffffffffffffffffff166108fc829081150290604051600060405180830381858888f19350505050151561063457806002600085815260200190815260200160002060000160003373ffffffffffffffffffffffffffffffffffffffff1673ffffffffffffffffffffffffffffffffffffffff16815260200190815260200160002081905550600091505061063b565b5b60019150505b919050565b600060015411151561065157600080fd5b60026000828152602001908152602001600020600501544210151561067a5761067981610b6c565b5b60026000828152602001908152602001600020600201543411151561069e57600080fd5b6000600260008381526020019081526020016000206002015414151561076c5760026000828152602001908152602001600020600201546002600083815260200190815260200160002060000160006002600085815260200190815260200160002060010160009054906101000a900473ffffffffffffffffffffffffffffffffffffffff1673ffffffffffffffffffffffffffffffffffffffff1673ffffffffffffffffffffffffffffffffffffffff168152602001908152602001600020600082825401925050819055505b336002600083815260200190815260200160002060010160006101000a81548173ffffffffffffffffffffffffffffffffffffffff021916908373ffffffffffffffffffffffffffffffffffffffff1602179055503460026000838152602001908152602001600020600201819055507fa8cfe1ad7fd8dc4ffab37a1abfa08141710289f2dc0127a71fe37617224e83c9813334604051808481526020018373ffffffffffffffffffffffffffffffffffffffff1673ffffffffffffffffffffffffffffffffffffffff168152602001828152602001935050505060405180910390a150565b60026020528060005260406000206000915090508060010160009054906101000a900473ffffffffffffffffffffffffffffffffffffffff1690806002015490806003018054600181600116156101000203166002900480601f01602080910402602001604051908101604052809291908181526020018280546001816001161561010002031660029004801561092a5780601f106108ff5761010080835404028352916020019161092a565b820191906000526020600020905b81548152906001019060200180831161090d57829003601f168201915b5050505050908060040160009054906101000a900460ff16908060050154908060060154905086565b6000606060008060006002600087815260200190815260200160002060060154600260008881526020019081526020016000206003016002600089815260200190815260200160002060020154600260008a815260200190815260200160002060010160009054906101000a900473ffffffffffffffffffffffffffffffffffffffff16600260008b815260200190815260200160002060050154838054600181600116156101000203166002900480601f016020809104026020016040519081016040528092919081815260200182805460018160011615610100020316600290048015610a835780601f10610a5857610100808354040283529160200191610a83565b820191906000526020600020905b815481529060010190602001808311610a6657829003601f168201915b505050505093509450945094509450945091939590929450565b60015481565b6000809054906101000a900473ffffffffffffffffffffffffffffffffffffffff1681565b60003073ffffffffffffffffffffffffffffffffffffffff166371be2e4a6040518163ffffffff167c010000000000000000000000000000000000000000000000000000000002815260040160206040518083038186803b158015610b2c57600080fd5b505afa158015610b40573d6000803e3d6000fd5b505050506040513d6020811015610b5657600080fd5b8101908080519060200190929190505050905090565b60026000828152602001908152602001600020600501544210151515610b9157600080fd5b6002600082815260200190815260200160002060040160009054906101000a900460ff16151515610bc157600080fd5b60016002600083815260200190815260200160002060040160006101000a81548160ff0219169083151502179055507f01675b171bdadcf5faf62dff9344c4a4a73458f58e88a21a2c5902ad156c6034816002600084815260200190815260200160002060010160009054906101000a900473ffffffffffffffffffffffffffffffffffffffff166002600085815260200190815260200160002060020154604051808481526020018373ffffffffffffffffffffffffffffffffffffffff1673ffffffffffffffffffffffffffffffffffffffff168152602001828152602001935050505060405180910390a16000809054906101000a900473ffffffffffffffffffffffffffffffffffffffff1673ffffffffffffffffffffffffffffffffffffffff166108fc60026000848152602001908152602001600020600201549081150290604051600060405180830381858888f19350505050158015610d2c573d6000803e3d6000fd5b5050565b336000809054906101000a900473ffffffffffffffffffffffffffffffffffffffff1673ffffffffffffffffffffffffffffffffffffffff168173ffffffffffffffffffffffffffffffffffffffff16141515610d8c57600080fd5b60018060008282540192505081905550826002600060015481526020019081526020016000206003019080519060200190610dc8929190610e45565b5081420160026000600154815260200190815260200160002060050181905550600154600260006001548152602001908152602001600020600601819055507fe6e9c34d2c4f875a45be751a7b3cb3399e3e6778b201c54f86569ae8234c7b316001546040518082815260200191505060405180910390a1505050565b828054600181600116156101000203166002900490600052602060002090601f016020900481019282601f10610e8657805160ff1916838001178555610eb4565b82800160010185558215610eb4579182015b82811115610eb3578251825591602001919060010190610e98565b5b509050610ec19190610ec5565b5090565b610ee791905b80821115610ee3576000816000905550600101610ecb565b5090565b9056fea165627a7a7230582016917459734871b5f201a10fae8c62a4bdeed642841b06eb76e743439379fb110029",
  "source": "pragma solidity >=0.4.22 <0.6.0;\r\n\r\ncontract EventBid {\r\n    \r\n    address payable public ownerAddress;\r\n    \r\n    uint public eventCount;\r\n\r\n    struct Ticket{\r\n        mapping(address => uint) bids;\r\n        address topBidder;\r\n        uint topBid;\r\n        string eventName;\r\n        bool eventEnded;\r\n        uint time;\r\n        uint eventId;\r\n    }\r\n    \r\n    mapping( uint => Ticket ) public tickets;\r\n\r\n    event topBidIncreased(uint eventId, address bidder, uint bidAmount);\r\n    event eventResult(uint eventId, address winner, uint bidAmount);\r\n    event newEventAdded(uint eventId);\r\n\r\n    // The following is a so-called natspec comment,\r\n    // recognizable by the three slashes.\r\n    // It will be shown when the user is asked to\r\n    // confirm a transaction.\r\n\r\n    /// Create an auction with `_biddingTime`\r\n    /// seconds for bidding on behalf of the\r\n    /// beneficiary address `_beneficiary`.\r\n    constructor() public {\r\n        ownerAddress = msg.sender;\r\n    }\r\n    \r\n    function getCount() view public returns (uint){\r\n        return this.eventCount();\r\n    }\r\n    \r\n    modifier onlyManager(address user){\r\n        require(user==ownerAddress);\r\n            _;\r\n    }\r\n\r\n    function fetchTicket(uint eventId) public view returns (uint, string memory, uint, address, uint) {\r\n        return (tickets[eventId].eventId,tickets[eventId].eventName,tickets[eventId].topBid,tickets[eventId].topBidder,tickets[eventId].time);\r\n    }\r\n\r\n    function generateEvent(string memory name, uint time) public onlyManager(msg.sender) {\r\n        // require(time>10800); tickets[eventCount].time=now+time-3600;\r\n        eventCount+=1;\r\n        tickets[eventCount].eventName=name;\r\n        tickets[eventCount].time=now+time;         \r\n        tickets[eventCount].eventId=eventCount;        \r\n        //emit showDate(now, now+time);\r\n        emit newEventAdded(eventCount);\r\n    }\r\n\r\n    function bid(uint eventId) public payable {\r\n\r\n        require(eventCount>0);\r\n        if(now>=tickets[eventId].time)\r\n            biddingClose(eventId);\r\n\r\n        require(msg.value > tickets[eventId].topBid);\r\n\r\n        if (tickets[eventId].topBid != 0) {\r\n            tickets[eventId].bids[tickets[eventId].topBidder] += tickets[eventId].topBid;\r\n        }\r\n        tickets[eventId].topBidder = msg.sender;\r\n        tickets[eventId].topBid = msg.value;\r\n        emit topBidIncreased(eventId, msg.sender, msg.value);\r\n    }\r\n\r\n    function withdraw(uint eventId) public returns (bool) {\r\n        uint bidAmount = tickets[eventId].bids[msg.sender];\r\n        if (bidAmount > 0) {\r\n            tickets[eventId].bids[msg.sender] = 0;\r\n\r\n            if (!msg.sender.send(bidAmount)) {\r\n                tickets[eventId].bids[msg.sender] = bidAmount;\r\n                return false;\r\n            }\r\n        }\r\n        return true;\r\n    }\r\n\r\n    function biddingClose(uint eventId) public {\r\n\r\n        require(now >= tickets[eventId].time); // auction did not yet end\r\n        require(!tickets[eventId].eventEnded); // this function has already been called\r\n\r\n        tickets[eventId].eventEnded = true;\r\n\r\n        emit eventResult(eventId, tickets[eventId].topBidder, tickets[eventId].topBid);\r\n\r\n        ownerAddress.transfer(tickets[eventId].topBid);\r\n    }\r\n}",
  "sourcePath": "C:/Users/Siddharth/Desktop/SID/bidding-eth-app/bidding-eth-app/contracts/EventBid.sol",
  "compiler": {
    "name": "solc",
    "version": "0.5.0+commit.1d4f565a.Emscripten.clang"
  },
  "schemaVersion": "3.0.9",
  "updatedAt": "2019-05-31T21:24:31.336Z",
  "devdoc": {
    "methods": {}
  },
  "userdoc": {
    "methods": {
      "constructor": "beneficiary address `_beneficiary`."
    }
  }
}